:020000041000EA
:10000000002000082B0100100D0000008D010010E1
:1000100000000000000000000000000000000000E0
:100020000000000000000000000000008901001036
:10003000000000000000000089010010890100108C
:100040008901001089010010890100108901001048
:100050008901001089010010890100108901001038
:100060008901001089010010890100108901001028
:100070008901001089010010890100108901001018
:100080008901001089010010890100108901001008
:1000900089010010890100108901001089010010F8
:1000A00089010010890100108901001089010010E8
:1000B00089010010890100108901001089010010D8
:1000C00010B5064C2378002B07D1054B002B02D02E
:1000D000044800E000BF0123237010BD080400089D
:1000E00000000000F8140010044B10B5002B03D0E2
:1000F0000349044800E000BF10BDC04600000000F6
:100100000C040008F81400100230800803D00130FD
:100110000238FCD1C046C0467047EFF3108072B67B
:10012000704780F3108870477047FFF7FDFF72B685
:100130000F4C104DAC4209DA21686268A368043B99
:1001400002DBC858D050FAE70C34F3E70A490B4AEF
:100150000020521A02DD043A8850FCDC08480949A4
:100160000860BFF34F8F00F0D3FE00F07DFEFEE786
:10017000041500101C1500100804000824060008CF
:100180000000000808ED00E0FEE7FEE700B50420EF
:100190007146084202D0EFF3098001E0EFF30880D6
:1001A000043000F06FFCFEE7014B18607047C0465A
:1001B00020060008044B1B681A00AC3212881B6A28
:1001C0005043C0187047C046200600081D4B984297
:1001D0000FD010D840282FD005D8002830D01028B4
:1001E00028D019481EE0802828D080235B00984240
:1001F000F7D1144816E0154B984214D008D8A02324
:100200001B0698421CD0124B9842EAD1A0200BE06A
:10021000104B98420AD0104B984209D00F4B98428D
:10022000DFD10F487047A420C003FBE70D48F9E772
:100230000D48F7E70D48F5E70D48F3E70D48F1E7FE
:100240000020EFE706005200FF005200010000F01E
:10025000090000A0040000F0050000F0030000F019
:100260000100520002005200030052000100500041
:10027000020050000500520010B50020FFF79AFF61
:100280000A4B1C682300B0331B68C0180368002B9E
:100290000ADB074B1868FFF799FF012263689A6031
:1002A0009A68002AFCD110BD0248FCE7200600082D
:1002B00024040008020050000D4B10B518600028FF
:1002C00004D0FE235B42038000234380094B1B685C
:1002D0001A004C321278002A08D04D331B78002BBC
:1002E00004D002220449002000F0E0F810BDC0460E
:1002F00034040008200600085501000810B5024823
:10030000FFF7DAFF10BDC046C8030008064B1B68A4
:10031000B0331B68C3181B68002B03DA89B2416035
:10032000002070470148FCE72006000801008A0011
:100330000368002B04DA89B2C26081600020704734
:100340000048FCE701008A00064B1B68B0331B68BD
:10035000C3181B68002B03DAC36800200B607047CA
:100360000148FCE72006000801008A00024B1A68D9
:10037000002A00D11860704738040008F0B52C241A
:100380006043154C1F0024681D0A2018FF242540D7
:100390002740124C1B0C26680760346A4560836056
:1003A000AC36368877433F1907612F0080376D01DF
:1003B0007F01E71964190A4D47611F043B43641923
:1003C000236000238361059BC2610162002B01D081
:1003D0001B888381F0BDC046380400082006000851
:1003E00008100000F0B5836885B002AD2B80154B76
:1003F00002681B68066A9B8E476A9B18AB7043684D
:100400000095826AC16A040003930369C068FFF71C
:10041000B5FF00213B000A0000913000FFF7AEFF5E
:10042000216B280000F0E2FA0022AB5E002B06DB15
:100430001F2213401E3A9A401300034A136005B06E
:10044000F0BDC0462006000800E100E0F7B52C250D
:10045000134C684326686943341825690193711861
:10046000002D19D08869002818D12E68002E15DAC1
:100470006768012426004B689E40B44613689EB20C
:1004800063461B041E431660EA608C61BC40019BFE
:10049000A4B24B62AC60FEBD0248FCE70248FAE73A
:1004A0003804000804028A0007028A002C23434310
:1004B00006480068C018C369934204D9036A002043
:1004C0009200D15070470248FCE7C046380400084B
:1004D0000A028A0073B5002642690400D5680196B5
:1004E0002B0CB34221D01B0413601368194B006915
:1004F0001B68B0331B68C3181B68B34215DA01A927
:10050000FFF722FFB0420CD10198E26903681E0C8C
:10051000DBB29A4205D9226A9B009B58002B00D07F
:10052000984731002069FFF7F1FEADB2002D09D0E8
:1005300063691D6000251B68636AAB4205D098475C
:100540006562A56163691B6873BDA36A002BF8D05F
:100550009847F6E7200600082C2310B54343034ACA
:100560001068C018FFF7B6FF10BDC0463804000879
:10057000F8B5194B0F001B681A002E321278824210
:1005800027D9002925D01F250A68154021D1190037
:10059000AC310C88114E60431C6AD2080419290042
:1005A0007868346000F018FF29002000FFF7AEFEE5
:1005B0003A0029003068FFF7BBFE041E07D1010096
:1005C0003068FFF7A3FE03002000002B00D0044892
:1005D000F8BD0448FCE7C046200600083C040008BB
:1005E00001018A0003018A0010B5002A0DD10029FB
:1005F00014D10B4B1A681300AC331B885843136A91
:10060000C018084B1860080010BD002906D0064B22
:10061000196019005A60FFF7ABFFF5E70348F3E7ED
:10062000200600083C040008CC03000803018A00EF
:10063000F7B5184F04003B680191DE6833688342C8
:1006400026D90025A94202D1FFF767FD05003868C9
:100650000368002B1ADA1F22012322409340640909
:100660007268A4001419226813420DD09A432260C4
:1006700000240021FFF74AFE019B002B02D1280035
:10068000FFF74FFD2000FEBD034CF2E7034CF3E7FC
:10069000034CF7E73C0400080201880003018800CE
:1006A00004018A000A4B1B68DB681A6882420DD974
:1006B00059681F23420918401E3B8340920050583E
:1006C0001840431E9841034BC01870470248FCE78E
:1006D0003C0400080001880004018A00A6220549A4
:1006E000D2008B580220DB439B0702D0012388589D
:1006F000184070470000264010B5FFF7EFFF0023B9
:10070000022801D1014B1B68180010BD44040008E9
:10071000094A83009B18D022920098580722104063
:10072000042807D1C022920098581F23034080203C
:10073000400018437047C0460000264010B5FFF740
:10074000E7FF03281CD005D8012816D013D9FFF7DE
:10075000D3FF11E01223FF33984213D01423FF3349
:10076000984217D0033B984217D10D4A0D4BD058F1
:10077000C00FC00300E00C4810BD0C4B1868FBE72D
:100780000B4BFBE70B4B186904231840F4D0802077
:100790000002F1E7024A084BE9E70020ECE7C04617
:1007A000000026400C05000000127A0040040008FA
:1007B0009C040008000027403C050000B023154AB7
:1007C000DB00D35810B59903DB01DB0F890BC37134
:1007D000114B0160D3580F24D904DB01DB0D0381D9
:1007E000B123DB00D358C90C8180190021408172EC
:1007F00019092140C172D9029B009B0F8373074BDB
:10080000C90CD35881815A05DB01520FDB0D82716F
:10081000038210BD00002640840500008C05000006
:1008200010B5104B421E1B683B331B78934216D900
:100830007F221F248030FF300B4B8000C3581A40AA
:100840000A701A0C2240180A8A701A012040E240ED
:10085000487000209B009B0FCA700B7110BD0348AD
:10086000FCE7C046200600080000264001004A00C0
:10087000F0B587B00400FFF761FF0600002C38D107
:1008800001AD14222100280000F0A6FD2800FFF78A
:1008900095FFB023274ADB00D358002B03DAAC7B4B
:1008A000023C631E9C41EA79019F531E9A41A8882D
:1008B0000132002C1AD0002818D0002A16D00023AC
:1008C000190000F073FC00230C0005003A00300012
:1008D000190000F06BFCE6076A08324363088018D1
:1008E00059412A00230000F041FC0600300007B007
:1008F000F0BD114B1B683B331B78A342F6D301AD0F
:1009000005220021280000F067FD20002900803426
:10091000FFF786FFFF34074BA400E3580024A342EF
:1009200003DA2C79023C631E9C412F786878AA7800
:10093000BFE7C0460000264020060008E02210B5B0
:100940000124094B80009200C018835880589B06F0
:100950009B0F9C400F231840FFF78AFF630818186D
:10096000210000F077FB10BD00002640144B30B58D
:100970001A680724130028331B781F2B15D8830807
:100980001D00A5432C1E0FD103342040A040814000
:1009900012689B002032D3180A00FF2181401C6896
:1009A000624011406140196030BD802320401B0629
:1009B000184380239B011268C91889008850F3E707
:1009C00020060008064B9A680300064810339B0077
:1009D000824202D1985899507047034AD058FBE799
:1009E00000ED00E00000000800000010F8B506006F
:1009F0000D0000283AD00023C05E002828DBB17823
:100A0000FFF7B4FF0024FF22032794460023F05E83
:100A1000716883B21F40FF006646BA4089013140C9
:100A2000D243B940002815DB114E83089B009B1967
:100A3000C026B6009F593A40114399510D4B9A6810
:100A40000D4B9A4202D12900FFF7BCFF2000F8BDF0
:100A50000A4CD8E70F263340083B064E9B089B0004
:100A60009B19DE6932401143D961E7E7034CEDE79A
:100A700000E100E000ED00E0000000080100560089
:100A8000FEE7000002680A4B10B51A6042685A601F
:100A900082689A60C268DA6002691A6142695A61C2
:100AA00082699A61C269DA61FFF7EAFF10BDC04648
:100AB000E8030008B0235B059A89002A02D09889D0
:100AC00080B2704780204000FBE700007FB5274BD5
:100AD00086000D00F458042901D0012927D10020F7
:100AE0000FE0A3682B420BD1E36829001A685B680A
:100AF00002920193039302A8236898471C4B1C6041
:100B00006469002C0BD01B4B9842EAD1012DE8D12F
:100B1000174B18481A68184B9A5104B070BD012D34
:100B2000FBD1144B9842F3D0134B9C51F5E70229AB
:100B300006D10F4B1B68181EEFD01C6903E01C0088
:100B40006369002BFBD10020002CE6D0A3682B4268
:100B500009D1E36829001A685B6802920193039344
:100B600002A8236898472469EEE7C0468804000875
:100B700084040008FF00420070040008194B1B6841
:100B8000190004C9C96F51180968016219000831B8
:100B9000C96F5218126842621A0042321278002A53
:100BA0001FD09A68E0321268D2061AD5F222DB68AA
:100BB000D2019A580260F022D2019A5842600A4A41
:100BC0009A588260094A9A58C260094A9A58026142
:100BD000084A9A584261084A9A588261074A9B58C3
:100BE000C361704720060008047800000878000000
:100BF0000C780000107800001478000018780000CD
:100C0000194B1B681A1D1968D26F8A18016A116086
:100C10001A0008321968D26F8A18416A11601A00E6
:100C200042321278002A1ED09A68E0321268D20648
:100C300019D5F0224168DB68D201995081680B4ACE
:100C40009950C1680A4A995001690A4A9950416904
:100C5000094A99508169094A9950C169084A9950CD
:100C60000168E832995070472006000804780000B7
:100C7000087800000C78000010780000147800005C
:100C800018780000B023F7B55B055A7807002126D5
:100C9000002A01D05E78F6B2624D6B68002B00D05E
:100CA0007CE0FFF73AFA6B680090002B00D088E0F8
:100CB0005D4C22681300AC33198807234B43126A3A
:100CC0009B181A68002AFCDADB68DA0020D51B0FB3
:100CD0001B0756480193FFF751FF5549212E00D0BD
:100CE00074E0902022680001131DDC6F13681C194A
:100CF00023680B4003432360130008331268DB6F43
:100D0000D3181A68114008431860484B019A1343DE
:100D10008022454E9205316813430A00AC32108898
:100D2000072200244243096A5218D3605460536872
:100D3000FFF7C0FE80235B0098425CD1380000F0D2
:100D40005FFB32681300AC33198807234B43126AE8
:100D50009B181A68002AFCDADF68FB0003D538010B
:100D60000009FFF74DFF334B32681F401300AC33CF
:100D7000198807234B43126A00989B180022DF60F2
:100D80005A60FFF7CEF9002C0FD16B68002B03D00F
:100D900008210120FFF79AFE2000FEBD0121080076
:100DA000FFF794FE041E00D17BE76B68002B03D095
:100DB00002210120FFF78AFE1F4B9C42ECD01F4C02
:100DC000EAE704210120FFF781FE71E78022206815
:100DD0005200031DDC6F03681C1923680B4013438A
:100DE0002360030008330068DB6FC31818680140F4
:100DF0000A431A6089E732681300B0331B68126A2D
:100E00009B181B68002B0ADB04230D4A11690B4356
:100E10001361012F01D030BF93E720BF91E7064C4B
:100E20008FE7C04688040008200600084804000830
:100E3000FF00FFFFFFFFFFDF05004200FF00420051
:100E400000ED00E0C0228020064952008B58C0050A
:100E50009B009B0803438B50802388581B06034349
:100E60008B5070470000264010B562B6034800F072
:100E7000C7F80020FFF706FFFBE7C0460020001080
:100E800010B50020FFF768FB10BD704710B50020BB
:100E9000FFF754FD002829D0154B1860154B1B682F
:100EA0001A1D1C68D36FE4182168090E013100F087
:100EB000D1F8114B18602168090AC9B2013100F05C
:100EC000C9F80E4B441E18600D49200000F0C2F80E
:100ED000FA210C4B013018708900200000F0BAF89C
:100EE000094B01301860094BC003186010BDC046A3
:100EF000C400000820060008C8000008C000000860
:100F000040420F00D4000008D0000008CC000008C8
:100F100010B52148FFF748F9B022E02130201F4CDE
:100F2000D200A35889005B005B08A3506358834339
:100F3000635080235B04A350194B1A4AE250A0224D
:100F400004339201E250FF22174BE250FFF77AFF81
:100F5000C02201215200A3588B43A350FFF795FFF5
:100F6000FFF794FF114B03201A681300AC33198864
:100F700007234B43126A80219B180022DA605A60D3
:100F80000B4AFFF731FB0B48FFF7F0F90A48FFF770
:100F900029FAFFF7B3F910BD101400100000264025
:100FA00084050000010002008C05000020060008F6
:100FB000D4030008A0040008C4140010024BD86F2A
:100FC000032318407047C0460400214010B5FFF7C6
:100FD000A4F80749074ACB6F1A40074B1343CB6766
:100FE000102306490A681A42FCD0FFF79AF810BD90
:100FF00004002140FCFF00000100FA0588002140A8
:1010000070B50F4C0600FFF788F8E36F0500DB436F
:101010009B0701D1FFF7DAFFB0230A4A9B00D650A5
:10102000E36F094A09491A40094B1343E367102348
:101030000A681A42FCD02800FFF773F870BDC0465A
:101040000400214000002140FCFF000088002140F6
:101050000300FA05002243088B4274D303098B4234
:101060005FD3030A8B4244D3030B8B4228D3030C78
:101070008B420DD3FF22090212BA030C8B4202D31A
:101080001212090265D0030B8B4219D300E0090A42
:10109000C30B8B4201D3CB03C01A5241830B8B424B
:1010A00001D38B03C01A5241430B8B4201D34B0334
:1010B000C01A5241030B8B4201D30B03C01A524199
:1010C000C30A8B4201D3CB02C01A5241830A8B421E
:1010D00001D38B02C01A5241430A8B4201D34B0207
:1010E000C01A5241030A8B4201D30B02C01A52416B
:1010F000CDD2C3098B4201D3CB01C01A524183091F
:101100008B4201D38B01C01A524143098B4201D358
:101110004B01C01A524103098B4201D30B01C01A83
:101120005241C3088B4201D3CB00C01A52418308FD
:101130008B4201D38B00C01A524143088B4201D32A
:101140004B00C01A5241411A00D20146524110468A
:101150007047FFE701B5002000F006F802BDC04669
:101160000029F7D076E770477047C046002B11D1B1
:10117000002A0FD1002900D1002802D00021C94344
:10118000081C07B4024802A14018029003BDC046E3
:10119000D9FFFFFF03B4684601B5029800F030F8AC
:1011A000019B9E4602B00CBC7047C046F0B5CE46CF
:1011B000474615042D0C2E0080B50704140C3F0C77
:1011C0009946030C7E435D43674363437F19340CA8
:1011D000E4199C46A54203D980235B029846C44487
:1011E0004B4643435143250C36046544360C2404D6
:1011F000A4195B19591820000CBC90469946F0BD03
:10120000F0B54F464646D646C0B5040082B00D0044
:10121000914698468B422FD82CD04146484600F044
:10122000CFF829000600200000F0CAF8331A9C46C7
:10123000203B9A4600D576E04B46524693401F002D
:101240004B46624693401E00AF4228D825D05346F5
:10125000A41BBD41002B00DA7BE00022002300929A
:101260000193012352469340019301236246934028
:10127000009318E08242D0D900220023009201930B
:101280000A9B002B01D01C605D600098019902B0A0
:101290001CBC90469946A246F0BDA342D7D9002275
:1012A0000023009201936346002BE9D0FB07984688
:1012B000414672080A437B0866460EE0AB4201D104
:1012C000A2420CD8A41A9D41012024196D4100218D
:1012D000013E24184D41002E06D0AB42EED9013E0E
:1012E00024196D41002EF8D1009801995346001938
:1012F0006941002B23DB2B005246D3402A00644671
:10130000E2401C0053461500002B2DDB26005746FB
:10131000BE40330026006746BE403200801A994125
:1013200000900191ACE7624620239B1A4A46DA40BE
:101330006146130042468A4017001F4380E7624619
:1013400020239B1A2A0066469A402300F340134349
:10135000D4E76246202300219B1A002200910192CB
:101360000122DA40019280E72023624626009B1A80
:10137000DE402F00B0466646B74046463B0033434A
:10138000C8E7C0461C2101231B04984201D3000C6E
:1013900010391B0A984201D3000A08391B099842E8
:1013A00001D30009043902A2105C40187047C046FE
:1013B000040302020101010100000000000000001E
:1013C00010B5002903D1FFF7DDFF203002E0081C33
:1013D000FFF7D8FF10BDC04603001218934200D19A
:1013E000704719700133F9E7F8B5C046F8BC08BC7E
:1013F0009E467047F8B5C046F8BC08BC9E4670478C
:1014000001B40248844601BC604700BFB102000835
:101410000000214000002540000001400000344051
:1014200000002440000031400000324000001F4115
:101430000000234000001140101010101010101078
:101440001010800019005500F000050105013B0453
:10145000101C01010FC00000000400000101010187
:10146000011D3A577896000820001012080000006D
:10147000001F00000010000F002000023F06080EB1
:1014800000080009000A000B24282C30340000005A
:10149000100000009000000088000000080000001C
:1014A0008000000004F0000000F000004002000096
:1014B0002005A000D00100018001A0012000000053
:1014C0001000000003000000010000000100000007
:1014D000000000000503600004000000010000009F
:1014E0000000000001000000060460000800000089
:1014F00000060008810E00100000000004FDFF7FC0
:10150000010000000000001000000008C000000002
:1015100024150010C000000808030000080400089B
:101520001C02000000093D0000127A0000093D0085
:101530000000D007A00F000004000000E900001028
:10154000C1000010024A1368002BFCDB7047C04644
:101550000001264080B230B5C00020D0104B0722D9
:101560001C682300AC331B885A43236AD3181968BC
:101570000029FCDA3E210B4B062519600A4B0B496A
:101580001960A3210A4BC9005D500A4958505858A8
:10159000206A1218002050605A58002AFCDA30BD28
:1015A0002006000804012640080126401E1F0000F6
:1015B000000026401C05000010B54378FF2B11D118
:1015C00000F024F90400032000F010F9C3685A6801
:1015D000012311681943116011681942FCD12000E0
:1015E00000F0E4F810BDF7B500900020019100F084
:1015F000FDF83F4D06002B681A004C33B0321468DA
:101600001B780419002B5AD000F0F8F807000328C3
:101610001BD000F0FBF8374A374B0500D358002B9E
:101620003EDA364A0121300000F0D0F8002837D1E8
:101630000198FFF78FFF009B002B3ED02368002B03
:10164000FCDB00F0EBF804002BE0062000F0CEF805
:101650002B68B0331B68C0180368002B02DA284CD3
:101660002000FEBD002000F0A9F8264B9842F6D0DD
:101670000023254A19001268012000F0AFF8002568
:10168000A842ECD1002000F099F81E4A1F4B90426E
:1016900003D09D42E3D00135F4E79D42B9D1DEE7A6
:1016A000174C032F05D10121002000F077F8002806
:1016B000F9D1280000F07AF8D2E7154CF1E700F0F4
:1016C000A5F80E4A05000121300000F07FF800283F
:1016D00009D1009B002B08D02368002BFCDB00F015
:1016E0009DF80400E5E7064CE3E7094CE1E7C04656
:1016F00020060008000026401C0500002404000805
:10170000050052000101880034040008F04902007D
:1017100001005000184BF7B51B68184A5C68042399
:1017200011690B431361012824D030BF2300FC331F
:101730001B69002B1DD1A320114B1249124AC00076
:101740000F681E5815680195104D0D6006251D5037
:101750003E2010600E483E351D501D58002DFCDA0D
:101760000C48FC3420610F60A321C9005E50019B2E
:101770001360F7BD20BFD9E72006000800ED00E0A8
:101780000000264008012640040126401E1F0000DC
:101790001C050000AAAAAAAA0000000001B4024881
:1017A000844601BC604700BF3106001001B4024806
:1017B000844601BC604700BF2301001001B4024809
:1017C000844601BC604700BFA506001001B4024872
:1017D000844601BC604700BF3103001001B40248D9
:1017E000844601BC604700BF4D04001001B40248AC
:1017F000844601BC604700BFB501001001B4024837
:10180000844601BC604700BFBD0F001001B4024810
:10181000844601BC604700BF1B01001001B40248B0
:10182000844601BC604700BF790200100000000040
:1018300000000000000000000000000000000000A8
:081840000000000000000000A0
:1020000000780408D12200100D00000045230010C4
:102010004523001045230010452300100000000058
:10202000000000000000000000000000214B001034
:102030004123001000000000C14B0010254C00108F
:1020400041230010412300104123001041230010C0
:1020500041230010412300104123001041230010B0
:1020600041230010412300104123001041230010A0
:102070004123001041230010412300104123001090
:1022800041230010412300104123001010B5054CDC
:10229000237833B9044B13B10448AFF30080012312
:1022A000237010BDDC4C00080000000078390110DC
:1022B00008B5034B1BB103490348AFF3008008BDC9
:1022C00000000000E04C00087839011070477047AA
:1022D000FFF7FCFF72B6144C144DAC4209DA2168CA
:1022E0006268A368043BA2BFC858D050FAE70C3418
:1022F000F3E70F490F4A00209142BCBF41F8040B9D
:10230000FAE70D480D490860BFF34F8F00F090FACF
:1023100000F072FAFFF7DBFF0BF0D4FC0AF036FC9A
:102320000BF0BCFCFEE70000846C03109C6C0310F7
:10233000DC4C0008CC2501080020000808ED00E076
:10234000FEE7FEE700B504207146084202D0EFF335
:10235000098001E0EFF30880043009F0CBF8FEE7D4
:102360000230800803D001300238FCD100BF00BF2A
:102370007047EFF3108072B6704780F31088704793
:1023800008B500F047F800F003F800F009F808BDC0
:1023900008B5024804F0BAFF08BD00BF441601109A
:1023A00010B5124C124A0021204607F009F91148D5
:1023B00004F0ACFF104A0121204607F001F90F4854
:1023C00004F0A4FF04F540740D4A0621204607F0EE
:1023D000F7F80C4804F09AFF0B4A0721204607F053
:1023E000EFF80A4804F092FF10BD00BF0000324031
:1023F000B8160110EC160110F01601102417011088
:1024000080160110B4160110481601107C16011038
:10241000FEE7000070B582B09621002009F0BCF8FC
:1024200009F05AF800283AD0012009F02FFD09F0F0
:1024300095FABD4A536C23F47F4343F468535364C5
:10244000536CC3F307233A2B46D0B84B1B6893F861
:102450003C2032B1B649D1F8802322F03002C1F8D5
:1024600080231968D3F884208B5823F47F438B5042
:10247000AE4A13681868D3F88010435823F07F439E
:1024800043F08073435013681868D3F880104358A2
:1024900023F47F434350136893F83B5026E009F040
:1024A0000BF8A34BD3F8803113F0010F06D1A04AEB
:1024B000D2F80C3523F00043C2F80C359C4BD3F80E
:1024C0000C2542F00042C3F80C25D3F80C2542F04D
:1024D0000102C3F80C25A7E7536C23F0005323F443
:1024E000685343F468535364AFE7013DDDB16B1E9D
:1024F0008E4A126892F83B209342F6D28C4E05F237
:102500007F1456F8243023F0405343F0005346F82C
:102510002430012008F0BEFF56F8243023F0004399
:1025200046F82430E1E70021012008F059F97F4BFB
:102530001B6893F83C3003B901BE7D4BD3F8803360
:1025400013F00F0F3DD07A4BD3F8882522F040527C
:1025500042F00052C3F88825D3F8802522F00042CB
:10256000C3F88025D3F88C2522F00042C3F88C25CF
:102570000021084608F034F96C4B1B6893F83C3096
:1025800033B16B4AD2F8803323F00F03C2F88033A3
:1025900006F068FC674E002400942346224621463C
:1025A000304607F09DF9009423462246012130462B
:1025B00007F096F95C4A136843F0080313605E4C19
:1025C0001AE0002008F03AF940F211139842BAD10B
:1025D000564B1B6893F83C30002BB4D0544AD2F8C9
:1025E000803323F00F0343F00103C2F88033AAE7DE
:1025F000012008F04FFF013C4B4B1B6913F0040F07
:1026000001D1002CF4D1002C00F08480002D40F08A
:102610008380474AD2F8003523F0030343F00103D7
:10262000C2F80035414A13681868D3F8841043583B
:1026300023F47F43435013681868D3F8801043583D
:1026400023F07F4343F08073435013681968D3F835
:1026500080208B5823F47F438B500021012008F009
:10266000BFF80021084608F0BBF80021022008F05E
:10267000B7F80021032008F0B3F80021042008F087
:10268000AFF82E4808F04AF9002849D12C4808F044
:10269000F5F9002862D1254B1B6893F83C2032B134
:1026A0002349D1F8802322F00F02C1F8802393F848
:1026B0003C3033B11E4AD2F8803323F03003C2F8E5
:1026C0008033194A136823F440731360184BD3F80E
:1026D0000C2542F00042C3F80C25D3F80C2542F03B
:1026E0000102C3F80C256421002008F055FF00F01A
:1026F0003FF8144804F00AFE134804F007FE13489C
:1027000004F004FE124804F001FE124804F0FEFD3D
:1027100002B070BD104D79E70520FFF779FE78E72C
:102720000420FFF775FEB1E700002740C815010837
:10273000000026400000324040420F0028170110E0
:10274000400D03003C170110401701104417011001
:10275000481701104C17011002004A000420FFF72F
:1027600057FE98E708B5012007F0BCFA08BD70478E
:1027700008B5002008F032FD58B30346154A106032
:10278000154A11680868D1F880208258120E01326B
:10279000B3FBF2F2114802600868D1F88420825835
:1027A000C2F307220132B3FBF2F30D4A1360013B7F
:1027B0000C4AA2FB0312920C01320B490A700B4A1D
:1027C000A2FB03239B090133094A1360DB03094A77
:1027D000136008BD4C250008C815010850250008E5
:1027E0004825000883DE1B435C250008D34D62109A
:1027F000582500085425000808B50A4806F0F6FCDC
:10280000FFF7B5FFFFF7B4FF00221146032007F0E2
:10281000BFFA054807F0FEF8044807F053F906F040
:10282000C1FD08BD181D0110204D000850170110F2
:1028300008B5FFF79EFD074AD2F8883043F47003CD
:10284000C2F88830BFF34F8FBFF36F8FFFF795FD4E
:1028500008BD00BF00ED00E008B5044809F004F928
:1028600008B1002008BD0248FCE700BF6025000851
:102870000000020610B504F047FD044628B144B13B
:10288000FFF77EFD5CB1204610BD05F013FB04464A
:10289000F5E740F6E441002005F044FBF0E7FFF7E0
:1028A000DBFF0446EFE708B500F0CEF808BD08B539
:1028B00000F032F908BD08B500F05AFA08BD000072
:1028C00008B5084801F018FB074801F035F907483A
:1028D00000F0EEFA064800F097FB064800F0AAFB6D
:1028E00008BD00BF20160110181201103011011090
:1028F000DC110110F411011070477047002070477F
:10290000004870471100160000487047110016007B
:10291000004870471100160000487047110016006B
:10292000004870471100160000487047110016005B
:10293000004870471100160000487047110016004B
:10294000002070470048704711001600004870478B
:1029500011001600704708B511F030FB08BD08B52E
:1029600018F028FB08BD08B526F00EFD08BD08B517
:1029700011F040F908BD000008B5024809F0BEF8A2
:1029800008BD00BF7C25000808B50348034B036061
:1029900009F06AF808BD00BF7C250008A1290010D5
:1029A00038B5012903D0082937D0234838BD234B37
:1029B0001B78012B37D0032007F090FA204B984268
:1029C00033D001F00BFE012831D0022026F034FB79
:1029D0000546FFF7CEFC1B4B186025F02FFD044683
:1029E000062826D0022D0BD00120FFF7B4FF022CC1
:1029F00000D078B1134B1868FFF7BFFC0E48D5E73D
:102A00000220FFF7A8FF032C01D0052CF2D10028EB
:102A1000CCD0EFE709F00CF9ECE70A4B1868FFF7A8
:102A2000ACFC0020C2E70448C0E70348BEE7024808
:102A3000BCE70020BAE700BFFF004200284F0008B3
:102A400001018800C04E0008002853D02B4A1268AC
:102A5000002A51D070B52A4A106001F08BFE002385
:102A600007E0284AFF2102F8131002EB43025170DD
:102A70000133032BF5D9224B1B689B6ADB7E13F0D5
:102A8000020F35D11E4B1B685B6A03B198470020CB
:102A90001D4B18701D4B18701D4B186070BDDB6A04
:102AA000DA68986802FB04F303EB430302EB42028B
:102AB0005200002100EB43000BF04EF9104D2B6843
:102AC000DB6A586804EB8403DE002822002100EB57
:102AD000C3000BF041F92B68DB6A5B68FF229A5157
:102AE0000134074B1B689A6A127FA242D7D8C9E704
:102AF0000024F6E70748704706487047A84E0008CC
:102B0000BC4E0008044F0008244F0008F04E000897
:102B1000204F0008010016002DE9F04399B0844BC6
:102B20001C68002C00F00181A16ACF8A17F0030F06
:102B300036D107F10C05ADB28E8906EB460E4FEA91
:102B40000E1E1FFA8EFE488900EB800C4FEACC0C5B
:102B50001FFA8CFCCA8812F0030F26D10C3292B2F5
:102B6000B1F814804FEAD80318F0070822D04FF0CC
:102B70000109994419F0030F1FD1B8F1000F01D0DA
:102B80004FF00108434408339BB2D4F8309099F8D1
:102B90002080172F1DD999F81C70013FBFB219E092
:102BA00027F003051035ADB2C6E722F0030210325C
:102BB00092B2D5E74FF00009DBE7B8F1000F01D082
:102BC0004FF00108434423F003039BB20C339BB244
:102BD000DBE7032718FB07F7ADF80050ADF80270EC
:102BE000ADF804E0ADF80660ADF808C04000ADF8FF
:102BF0000A00ADF80C204A895200ADF80E20ADF85D
:102C000010300123ADF812304C22002105A80BF042
:102C1000A3F8484B0593CDF81CD005238DF822303E
:102C200023691B681BB1099323695B680A93236BB3
:102C30001A7F8DF83220DA89ADF820205A89ADF854
:102C40002C209A89ADF82E2003228DF83020042202
:102C50008DF831201B89ADF85830236B93F8203064
:102C60008DF85C30236B9A7F8DF83420DA7F8DF8F5
:102C700035205B7F8DF833302F4B1B6803B19847AD
:102C80002B4B1B681B6B1B8913F0010F44D1284B86
:102C90001B681B6B1B8913F0020F40D1244B1B6870
:102CA0001B6B1B8913F0080F3CD10BA826F028FAE8
:102CB000D8B91F4B1B681B6B1A690692596889B1FA
:102CC0000B460DF1360220311E685D689C68D8689D
:102CD000166055609460D060103310328B42F3D18F
:102CE0001B88138005A826F0B3F990B9134B012275
:102CF0001A700F4B1B689B6A1B7E13F0050F02D0E6
:102D00000F4A0021117013F00A0F02D00D4B002260
:102D10001A7019B0BDE8F08326F079F9B7E726F00C
:102D200084F9BBE726F07AF9BFE70748F1E700BF6F
:102D3000BC4E000869320010AC4E0008284F000855
:102D4000014F0008264F0008FF001600014B1860D5
:102D5000704700BFA84E000818B1034A1060002059
:102D600070470248704700BF304F0008010016004E
:102D700008B5FFF709FE034B034A1A60034B044AE8
:102D80001A6008BDAC4E000889290010B04E00083A
:102D90007929001070B504460D46074B1B684BB1EE
:102DA00098470646054B1B6813B1294620469847AD
:102DB000304670BD0026F5E7C84E0008C44E000836
:102DC00070B588B02E4B1B68002B56D005460024EA
:102DD000B5F808C02B4B1A68136803EBC403D988F5
:102DE0008C4506D00134E4B21379A342F0D8002612
:102DF00012E0254A126892695B8803EB83039B000B
:102E0000143B13445B6813F4801F08D106261F4A45
:102E1000137803F0FE031370304608B070BD01ABA9
:102E200095E8070083E80700AA89ADF81220002280
:102E3000ADF8102040228DF81420184601F082F8D9
:102E400006460028E3D1AB89ADF818308DF81A405A
:102E500000238DF81B3007932B681B7813F0010FAC
:102E600005D0074B1B6806A909489847CFE7044BD4
:102E70001B6806A907489847C9E70026CCE700BFAA
:102E8000CC4E0008D04E0008BC4E0008F04E0008A2
:102E9000320001003300010008B583B245F20C0294
:102EA000934201D0002008BD0846FFF789FFFAE7EA
:102EB00048B108B5054A1060054800F073F9054BA4
:102EC000054A1A6008BD0548704700BFD04E00088B
:102ED000952D0010C84E0008992E00100100160014
:102EE000014B1860704700BFCC4E000810B586B08B
:102EF000164C246894F804C0844521D919BB012AD2
:102F000001D013481DE01978642901D9104818E050
:102F100000218DF812108DF81310246804EBC00006
:102F20004088ADF80C00ADF808200193ADF8101002
:102F30008DF8141001A801F005F810B1044800E064
:102F4000034806B010BD0248FBE700BFD04E0008A2
:102F50000100160070B586B0ADF804000C461146AD
:102F60001D460A9B2A462046FFF7C0FF40B9BDF820
:102F70000430ADF808309DF80930032B02D91D4804
:102F800006B070BD1C4AD35C012B2FD91B4B1B68AC
:102F90001B6803EBC404E38853B3194A166831690C
:102FA000C8689DF80520097C01FB0222B16903EB8A
:102FB00083039B00143B0B441B695B6871695B1ABC
:102FC0001344C35C13F0010F01D10E48D8E76388A6
:102FD000ADF810300A9B0293ADF80C50BDF80430E8
:102FE000ADF8143002A82DF013FDC9E70148C7E77A
:102FF0000448C5E7FF0016000C4F0008D04E00083B
:10300000BC4E00081700160018B1034A10600020DB
:1030100070470248704700BFD44E000801001600F8
:1030200008B5034B1B6803B19847002008BD00BFDB
:10303000D84E000830B108B5034A1060034800F0CC
:10304000B1F808BD02487047DC4E0008213000107E
:103050000100160030B583B004460378032B0BD073
:10306000374B1B689B6A1B7E13F0020F02D023783C
:10307000042B59D003B030BD314B1B689B6ADB7EFB
:1030800013F0020FECD04378807843EA002001F07F
:1030900093F82B4B1B689A6A127F8242E0D9DB6A55
:1030A0005B6800EB8000C50003EBC000437A002B97
:1030B000D6D0B4F80130ADF804309DF80530032BBC
:1030C0000DD8204AD35C033B032B08D8DFE803F07C
:1030D000021A20261C4B1B68611C1C489847184B81
:1030E0001B68DB6A5B682B4400225A72B4F801301B
:1030F000ADF804309DF80530032BB1D8114A0221F8
:10310000D154ADE7104B1B68611C11489847E6E7A6
:103110000D4B1B68611C0F489847E0E70A4B1B6882
:10312000611C0D489847DAE70C4B1A78E3789A420D
:10313000A0D10B4B1B78032B9CD100F0C5FD99E768
:10314000BC4E00080C4F0008A84E00080800010003
:10315000090001000A0001000B000100104F0008E7
:10316000284F000800B583B012238DF8043003897E
:10317000ADF802308389ADF80030094B1B7813F0AD
:10318000010F05D139B18DF8051068462DF020FCEE
:1031900003B05DF804FBC0682DF048FCF8E700BF01
:1031A000F04E000818B310B404460023184600E09F
:1031B0000133134A1268D26A12681179994207D909
:1031C00030B9126852F82320A242F1D10120EFE772
:1031D00078B95379994210D2136843F82140084BCB
:1031E0001B68DB6A1A6813790133137102E0054822
:1031F000704700205DF8044B70470348FAE700BFB2
:10320000BC4E0008010016000300160070B506460B
:103210000D460020044606E01B6853F8243029467A
:10322000304698470134064B1B68DB6A1B681A79E5
:10323000A24204D9034A127812F0010FECD170BDFA
:10324000BC4E0008F04E00080246807908B100200C
:1032500070470023052B03D8D15C11B90133F9E77E
:1032600070470120704700002DE9F04385B0044607
:103270000D468A4A137843F00103137044F2100399
:10328000984200F2B780B0F5804F11D241F20403AA
:10329000984224D8B0F5805F32D3A0F58053042B38
:1032A0002ED8DFE813F01301B901C901DC01BE0318
:1032B000A0F58043102B23D8DFE813F0B0032200E1
:1032C00022002200EF01220082021D027E02220063
:1032D0001202C70222002200220022001D0243F235
:1032E0001203984265D033D943F21903984207D1AB
:1032F0000846FFF738FB694A137803F0FE031370A2
:10330000664B1B7813F0010F05D0654B1B6813B19A
:10331000294620469847614B1B7813F0010F05D0D2
:10332000604B1B6813B12946204698475B4B1B78BE
:1033300013F0110F09D0594A137803F0FE031370EC
:10334000594B1B6829462046984705B0BDE8F083D5
:1033500042F20403984228D1544B1B6813F0010F2A
:10336000CED1534E33689B6A93F903308DF8043005
:1033700000238DF805308DF8063001A82AF00CFFE7
:1033800033689B6A93F904308DF8043001238DF87B
:103390000530FF238DF8063001A82AF0FDFE434AD0
:1033A000136843F001031360AAE743F20103984254
:1033B000A6D1404B00221A703D4B1B689B6A1B7EB6
:1033C00013F0050F02D03C4A0021117013F00A0FD0
:1033D00002D03A4A0021117013F0030F40F0188117
:1033E00043F212039C428BD1354B1B68002B87D0D4
:1033F000984785E745F20303984200F002830FD90E
:1034000046F2010398427FF47BAF294B1B689B6A0D
:103410001B7E13F0030F3FF473AFFFF7F7FE6FE768
:1034200045F20103984200F0538245F202039842AC
:103430007FF466AF1E4B1B689A6AD17E11F0020FB3
:103440000BD02988ADF804109DF80510032904D885
:103450001C48415C072900F0BE822A88ADF8042090
:103460009DF80520032A02D81649002088549B6A3B
:10347000DB7E13F0020F40F0BD820D4B1B689B6A90
:103480001B7E13F0030F03D06B780F4A0021D15439
:1034900029462046FFF7BAFE32E700BFF04E00088B
:1034A000E44E0008E04E0008A84E0008EC4E00086C
:1034B000BC4E0008284F0008014F0008264F0008A6
:1034C000B04E00080C4F00081C4F00080023A44A0F
:1034D0001370A44A1370A44A1360A44A1360A44A48
:1034E0001360A44B1E683046FFF7AEFE00286DD176
:1034F000A14B19688B6A1B781BB34FF0B05090F842
:10350000043603F07F0390F80526D20102F47E52C0
:10351000134390F80326920302F4F822134390F821
:103520000026D20402F478021A43096A0B70924909
:103530000868006AC3F3072343700B68196A130C09
:103540008B708D4E3368186A2AF0E8FD33689A6AEA
:10355000127E12F0050F4DD1874E3368986A053000
:103560002BF084FA33681B6B1B8913F001014BD0DD
:103570007F2242EAC3128DF80420002946D07F2220
:1035800013F0020001D04FF4C060024309B14FF4C0
:10359000C0710A431B0203F400631343C3F3072300
:1035A0008DF8053000238DF806308DF807308DF842
:1035B00008308DF809308DF80A308DF80B3001A8ED
:1035C0002AF0D0FD6D4B02221A7099E630462AF09F
:1035D000A5FD694B1B689B6A1B7E13F0050FBBD0D2
:1035E000644E0021306800F0B3FA0121306800F029
:1035F000AFFAB1E70021186A00F0AAFA3368012196
:10360000186A00F0A5FAA7E73F22B2E73F22B7E722
:103610005B4B00221A60E3E60846FFF71BFD564BA2
:103620001B689B6A1B7E13F0030F3FF469AE2946AB
:103630002046FFF7EBFD63E64F4B1B689B6A1B7E42
:1036400013F0030F3FF45CAE487800F00DFCADF8CA
:103650000C009DF80D302978434AD15450E6464B72
:103660001A68936A597800297FF44AAE29780029AC
:103670007FF446AE297A51B9116BC889DE89414A77
:10368000D6801B8A93800B69034413606A603E4AAC
:10369000137803F0FE03137032E6374B1B689B6A06
:1036A0001B7E13F0030F3FF42BAE487900F0DCFBD8
:1036B000ADF80400304B1B689B6A5B7F012B09D07F
:1036C000EB78002B7FF41CAE9DF805302C4A0121CD
:1036D000D15415E69DF8053069782C4AD154EFE7AE
:1036E000254B1B689B6A1B7E13F0030F3FF408AE4B
:1036F000FFF78CFD04E6204B1A68136B1B8913F04F
:10370000020F1DD08B7E03BBCF7E0E7EA3B9936AC2
:103710001B7E13F0030F01D0012E1CD013F0020FFB
:1037200003D01B4B5B78002B36D1134B1B689B6A75
:103730001B7E13F0050F33D1104B02221A70DFE508
:103740000B782BB94F788E78E0E700263746DDE717
:1037500000263746DAE70F4A00211170DEE700BF86
:10376000274F0008024F0008E84E00080C4F0008E1
:10377000EC4E000898250008BC4E0008284F0008B1
:103780001C4F0008F44E0008F04E0008204F0008BF
:10379000104F0008014F0008A54826F063F8C4E761
:1037A000384600F061FBADF804009DF80530FF2BB2
:1037B000C2D0A04AD654BFE79F4B02221A709FE5A1
:1037C0009E4B1B689B6A1B7E03F00503052B31D0C3
:1037D0009B4B1B7813F0010F3FF492AD994B1B7874
:1037E000012B2AD0032B2CD0022B7FF489AD954BD3
:1037F00000221A70914B1B685B68934A1178C1EBE9
:10380000C10203EB42039A79002A3FF479AD9B8809
:10381000002B3FF475AD8D4B1B78002B7FF470AD02
:10382000012000F089FA00287FF46AAD854B01225F
:103830001A7065E5FFF7EAFCCAE7824B02221A70AC
:103840005EE5804B00221A705AE57C4B1B689B6A30
:10385000DB7E13F0020F30D1794B1B7813F0010F90
:103860003FF44EAD7A4B1B78012B29D0032B2BD084
:10387000022B7FF445AD764B00221A706F4B1B680C
:10388000DB68744A1178162202FB01339A79002A08
:103890003FF436AD9B88002B3FF432AD6E4B1B7866
:1038A000002B7FF42DAD012000F0A0F900287FF45B
:1038B00027AD674B01221A7022E5FFF7A7FCCBE783
:1038C000634B02221A701BE5614B00221A7017E548
:1038D0005A4B1B689B6ADB7E13F002030AD00A88EE
:1038E000ADF804209DF80520032A03D85B498A5CC3
:1038F000012A23D0002B31D12B88ADF804309DF85C
:103900000530032B02D8554A0221D1546A78298800
:10391000534B23F812106B78524A0021D154474B75
:103920001A68936AD97E11F0010F02D05B7F012BD8
:103930001BD029462046FFF769FCE1E428786A7825
:10394000474911F812108842D4D12B88ADF80430C1
:10395000032AE0D8414B07219954DCE72B7868789B
:1039600043EA002000F0A8FBC6E713691E7C002E86
:10397000DFD006F101086F7806FB0777D8689968F1
:103980002B7806FB03334246194438440AF0D6F933
:10399000DFF8A890D9F800301B69D868197C384442
:1039A00000F07AFCD9F800301B69DB683E449B5D6F
:1039B0008342BED02C4B1B6800212C489847D9F875
:1039C00000301B69DB6868784246002108FB003044
:1039D0000AF0C2F9ADE7527F012A7FF43EAD2B8891
:1039E000ADF804309DF80530032B3FF646AD0121BC
:1039F000C15442E52B78687843EA002000F05CFB74
:103A00003BE50B88ADF804300C4B1B689B6ADB8AE6
:103A1000ADF8063001A82CF0E7FF71E4FFF7F6FBE4
:103A20006EE4134A137843F00103137068E400BF97
:103A3000104F0008144F0008284F0008BC4E000823
:103A4000F04E0008014F0008004F0008024F000828
:103A5000264F0008254F0008274F00080C4F00088C
:103A6000044F0008E84E0008A84E000804000100BA
:103A7000244F000830B583B004460D46A0F5A0439E
:103A80000C3B0B2B39D8DFE803F0063840404038B8
:103A9000383840383843084600F096FA014670B38B
:103AA0002846FFF75FFB214B1B7813F0110F04D062
:103AB0001F4B1B682946204698472B891B4A1278C2
:103AC00012F0010F14D01B4A1268926A928A9A422D
:103AD00000D36BB912228DF80420ADF80230AB8907
:103AE000ADF8003001238DF8053068462CF070FFEA
:103AF0000E4A137803F0FE03137003B030BD29465D
:103B00002046FFF783FB0146CAE7FFF77FFBF4E798
:103B1000084B1B681B691B7C23B929462046FFF70D
:103B200075FBEAE7084600F08FFAF6E7F04E00086A
:103B3000A84E0008BC4E000818B1034A10600020CF
:103B400070470248704700BF184F00080100160078
:103B5000254B1B68002B46D070B505460E46002449
:103B600020E0214B1B681B6804EB840203EB8203FB
:103B7000D96891F81FE021E0012073450AD248B9C5
:103B8000CA5C3AB1013311F803C0BCF11B0FF3D08A
:103B90001344F2E7A8B90134134B1B689B6A5B7EA0
:103BA000A3421FD9002EDCD10F4B1B681B6804EB0E
:103BB000840203EB8203996891F81FE00023184602
:103BC000DBE70133AA79CA54002208E002EB030CB8
:103BD0000CF1010C15F802E001F80CE00132052AA5
:103BE000F4D9D8E770BD7047BC4E0008022859D8F8
:103BF00038B52F4B1B68002B56D02E4A1278002A5E
:103C000054D12D4A117058BBDC68162201FB02F218
:103C1000144401EB410C9D6805EB8C0EA488AEF8B2
:103C20000840DC689B6803EB8C03A45A5C80204B43
:103C30001B68DC6822449B6803EB8C0352889A80E3
:103C40001E4B18701A4B1B68986801EB410100EB82
:103C5000810029F0C5F850BB164B01221A7026E0EE
:103C60000128EDD1DC68162201FB02F204EB020E02
:103C70009C6801EB410C04EB8C04BEF80CE0A4F84A
:103C800008E0DC6814449B6803EB8C0324895C80A7
:103C9000074B1B68DC6822449B6803EB8C0352894A
:103CA0009A80CDE706487047064800E0054838BDD1
:103CB000BC4E0008264F0008254F0008274F00087B
:103CC00001001600FF00160010B50B4B1B78032BEC
:103CD00002D00A4C204610BD29F070F80446084B6B
:103CE0005B782BB9002CF5D1034B02221A70F1E757
:103CF000034825F0B7FDF5E7284F0008FF00160040
:103D0000104F00080A4B196811B10020034602E069
:103D10000020704701330A6B92F820209A4206D99E
:103D2000044AD25C012AF5D90130C0B2F2E77047EB
:103D3000BC4E00080C4F000870B5444B1D68002DA8
:103D40007CD006460C4602287AD8AB6A5A7E8A4254
:103D500078D91B7E13F0010F06D0FFF7D3FF2B6B32
:103D600093F82030984239D0394B1B78002B6BD117
:103D7000384B1C70002E3ED16B68C4EBC40203EBC1
:103D800042012B6804EB840403EB840389881982C5
:103D900069682B6803EB84035B6831F812101980A3
:103DA0002A4B19684B6803EB42030A6802EB840450
:103DB00062685B885380284B1E70244B1B68186810
:103DC000244B1B7803EB830300EB830029F036F8C8
:103DD000002836D11E4B01221A7032E02B6804EB0A
:103DE000840203EB82035B681B79023BDBB2012B8D
:103DF000BAD91A4825E0012EDDD16B68C4EBC402A4
:103E000003EB42012B6804EB840403EB84038989F0
:103E100019826B6803EB4203296801EB840149684E
:103E20001B890B80094B19684B6803EB42030A6836
:103E300002EB840462685B895380BCE7074800E0BA
:103E4000074870BD0648FCE70648FAE7BC4E000884
:103E5000014F0008004F0008024F00080200160042
:103E600001001600FF00160010B485B01E4B1B8920
:103E7000ADF808301D4B196811B3002300E0013381
:103E80000A6B92F820209A4216D9194A32F8132068
:103E9000ADF804209DF80520032AF0D8154CA25C4B
:103EA000012AECD9124A12F813208242E7D1104AB3
:103EB00032F81330ADF808309DF80930FF2B10D0E0
:103EC000BDF80830ADF80C3000209DF80C3063F3DD
:103ED00007009DF80D3063F30F2005B05DF8044B2B
:103EE000704701BEECE700BF84170110BC4E00080C
:103EF000044F00080C4F0008B8B100B583B00C4A5D
:103F000010600C4B0C4A1A600C4B1B689A690092AB
:103F10009B6A9A8AADF804205B8AADF80630684641
:103F20002DF020FC03B05DF804FB0548704700BF8E
:103F30002C4F0008E44E0008753A0010BC4E0008F3
:103F40000100160070B505462DF026FC044680B928
:103F50001A4B1B686BB11869067C56B199692A899E
:103F600002EB82029200143A0A44516811F0007F79
:103F700001D1204670BD126952685B69D21AEB7B91
:103F800006FB03331344C068AA882968184409F063
:103F9000D5FE0A4B1B689B6A1A7E12F0030FE8D00D
:103FA0005B7F012BE5D1EB7B054AD35C012BE0D194
:103FB000044A137843F002031370DAE7BC4E00089A
:103FC000204F0008244F000830B587B00289194BF4
:103FD0001B681B689B889A4203D00025284607B0BF
:103FE00030BD044601AB07C883E80700A289ADF8DD
:103FF000122040228DF814200022ADF8102018461F
:10400000FFF7A0FF054648B923681B7813F0020F9D
:104010000AD0094B1B68214608489847084A13787C
:1040200003F0FE031370D9E7034B1B6821460548D4
:104030009847F3E72C4F0008A84E00080500010040
:10404000F04E000806000100438843B3194A126885
:104050003AB3916A898A8B4225D84178106B90F8DF
:104060002000814221D2906903EB83039B00143B23
:104070000344586810F0007F19D010B4146994F804
:1040800010C01B6958685369C31A0CFB011119440D
:10409000E3685B5A038000205DF8044B7047012001
:1040A00070470120704701207047012070470020B1
:1040B000704700BFBC4E000870B582B0ADF8040078
:1040C000394B1B68002B65D0DA6A002A65D09B6AE1
:1040D000002B64D05068002863D09DF80460FF2E48
:1040E00028D00024FF2100E001342F4B1B689A6A7E
:1040F000127FA24219D9FF2917D1DB6A5B6804EB52
:104100008402D50058195A59284B13F812309E4290
:10411000EAD12822002109F01FFE234B1B68DB6A2D
:104120005B68FF225A512146DEE7FF291BD00020A1
:1041300000231BE01B7F03EB8303DA00002109F05F
:104140000BFE002307E0D26A506803EB8301CA002C
:10415000FF2181500133144A1268916A097F994204
:10416000F1D80020E4E71248E2E701330E4A126872
:10417000126B92F820209A420DD90C4A12F81320A3
:104180009642F2D1094AFF2102F8131002EB4302D2
:104190005170EAE7074802B070BD0648FBE70548E2
:1041A000F9E70448F7E700BFBC4E0008044F0008D9
:1041B00007001600FF00160030B482B0ADF804000E
:1041C000104B1D68CDB1AB6A93F81CC0604600234C
:1041D00000E00133634511D260450FD1EA6A5468AB
:1041E00003EB8301CA00A158074A12F811109DF889
:1041F00004209142EDD11846EBE7002002B030BC1C
:10420000704700BFBC4E0008044F000808B5FEF719
:10421000A6FB034B1B680BB100B1984708BD00BF5C
:10422000304F000808B504F02FFE0A4B02229A67AF
:10423000094B1B685B6B1B68B3F90030002B07DB75
:1042400003F01F015B0901228A40044941F8232041
:1042500008BD00BF00F03D40344F000800E100E021
:104260000420704770B5C0B006460C4615464FF4A2
:1042700080720849684609F061FD05E016F8012BD7
:104280006A401DF80250013C002CF7D1284640B08E
:1042900070BD00BF9017011008B50022FFF7E2FFC4
:1042A00008BD0000124B1B681B6B588CC3B2000A80
:1042B000012B08D0022B0BD0012B0ED09BB9442828
:1042C00013D00020704788B17428F3D100207047C4
:1042D00038B16828F0D1012070477C28EED1022047
:1042E000704701207047002070470320704700BFCF
:1042F000344F0008034B1B6813B11B6B18787047D1
:1043000000207047344F000808B5FEF730FB08BDA9
:104310002DE9F04FADF5097D80460E461746029314
:10432000B1F1805F10D2B1F1A05F03D38A189E4B28
:104330009A4209D99D4B9E4240F22781F21903F21D
:1043400001239A4200F22481994B5B6913F0804368
:10435000019329D0964B5B6903F007030393022B6B
:1043600018D00123049300230193924B019A9A429F
:1043700037D006F17046730A009326F4FF7424F0D8
:1043800001040021032005F02FFD82460028F8D10A
:1043900005465DE0052007F031FD0190864B98420F
:1043A000F8D001230493E0E7844BD3F81C2F02F0EC
:1043B0001F024FF0B05393F84037DBB29A4214BF5C
:1043C00001230023049302D005230393CDE70120AA
:1043D00007F05CFD0190784B9842F8D005230393D9
:1043E000C3E701BEC5E7002210E004F18052127855
:1043F00008A9CA5401340133B3F5007F15D2B44281
:10440000F3D3BD42F1D20028EDD0425D08A9CA54D1
:10441000B9F1000F07D104F180510978C9B2914276
:1044200001D04FF001090135E4E780466046B9F15B
:10443000000F0AD0029BCBB1009B03F5002008A916
:10444000400205F00BF882464846009B013300937A
:10445000019B002B5DD1BAF1000F5AD1BD4258D259
:1044600053464FF0000984464046C5E74FF0C80B5D
:10447000059506945D46DDF800B00BF50024640256
:10448000204604F097FF8246013D012007F002F824
:104490000AF4A403B3F5A40F01D1002DEDD10794C4
:1044A000059D069C464B9A4507D0BAF1000F0BD0EC
:1044B000434B9A4525D04846C7E705F023F8824686
:1044C000404B9842F9D0F0E74FF0C80B0595079D97
:1044D0005B46A3461C4608A9284605F017F8824605
:1044E000013C012006F0D6FF0AF4A403B3F5A40FA3
:1044F00004D1002CEFD1059D5C46D9E7059D5C46B3
:10450000D6E704F0FFFF82462E4B9842F9D048468A
:104510009BE778BB0021032005F0A2FC0028F9D11D
:10452000019BABB9224B5B6913F0804F02D0039B18
:10453000022B22D01E4B1B6813F4000F08D1049BE2
:1045400033B9002007F0A2FC01901B4B9842F8D031
:10455000019B03BB1C4B9A4520D004339A4520D0C5
:10456000BAF1000F01D0DFF864A050460DF5097DC7
:10457000BDE8F08F06F098FFCCE7022007F03EFC84
:1045800001900D4B9842F8D0D4E7DFF844A0E1E762
:10459000DFF83CA0DEE7DFF83CA0E6E7DFF838A074
:1045A000E3E7DFF834A0E0E700800014FF0700161F
:1045B00000002640030042000400420000F02640B4
:1045C00001005000020050000200520013001600CB
:1045D00006005200120016000100160010B500245B
:1045E00000E00134074B1B6893F83A30A34206D928
:1045F000204606F023F90328F3D1012000E0002033
:1046000010BD00BFC8150108014B1868704700BFF6
:104610001C4D0008064BD3F8000500F003000128EC
:1046200002D0032801D0002070470120704700BF4E
:1046300000002640024BD3F8000500F0030070474D
:1046400000002640024BD3F81C05C00F704700BF86
:104650000000264008B506F0F7FB08BD70B504461B
:104660000D461646032005F039FC054B984205D04F
:1046700032462946204606F031FB70BD0148FCE772
:104680000101880003004A0008B506F033FC08BDAC
:1046900008B506F0FFFE08BD094B1B685B6B6BB1EC
:1046A0001B685BB1B3F90030002B07DB03F01F017F
:1046B0005B0901228A40034941F82320704700BF6B
:1046C000344F000800E100E00B4B1B685B6B93B1BB
:1046D0001B6883B1B3F90030002B0CDB03F01F0122
:1046E0005B0901228A402033044941F82320BFF3AB
:1046F0004F8FBFF36F8F7047344F000800E100E029
:1047000008B5FDF736FE08BD08B5FDF736FE08BD55
:1047100008B507F08DFA08BD08B5002107F076F955
:1047200008BD000058B1B1F5FD7F01D305487047C1
:1047300008B501230A460449FFF7EAFD08BD014810
:10474000704700BF010016000708001658B108B5F1
:10475000B1F5FD7F01D3054808BD0A46044909F0BB
:10476000EDFA0020F8E70148704700BF010016008D
:1047700007080016014B1860704700BF344F00084F
:104780000388AE2202FB03F3A3F26F33024AA2FBBB
:104790000323DB080B807047CDCCCCCCB0F90030C4
:1047A00042F64B0202FB03F3044A82FB0302DB17CF
:1047B000A3EB2233BD330B80704700BFAD8BDB68AA
:1047C00000F1080343604FF0FF328260C360036171
:1047D00000230360704700230361704743684B6008
:1047E0009A688A60516099600861036801330360C8
:1047F000704730B40D68B5F1FF3F11D000F10803E8
:104800001C465B681A68AA42FAD963684B609960D3
:104810008C606160086103680133036030BC7047DD
:104820000469F2E70369416882688A6041685160FF
:104830005A68824206D0002202611A68013A1A6060
:104840001868704782685A60F5E70000124A12F053
:10485000070F1ED0D11D21F00701C1F540431344BD
:104860000A460E480260002141601344083B23F0D1
:1048700007030B48036059601960991A516013606F
:10488000084B1960084B1960084B4FF000421A6042
:1048900070474FF44043E4E73C4F0008480F0108DD
:1048A000384F0008440F0108400F01083C0F010871
:1048B000164B1A461B688342FBD3516802EB010C6E
:1048C000844509D0416800EB010C634509D00360C1
:1048D000904219D010607047406801445160104602
:1048E000F0E710B40A4C2468A3420BD05B6819446B
:1048F000416013681B680360904200D010605DF84F
:10490000044B70470460F7E7704700BF480F010889
:10491000384F000870B5054600F052FF344B1B6855
:10492000A3B1344B1B681D424AD135B1083515F08F
:10493000070F02D025F007050835002D42D02E4B79
:104940001B68AB424DD32D4A146804E0FFF77EFF8D
:10495000E7E722461C466368AB4202D22368002B7D
:10496000F7D1234B1B68A3423DD016680836236855
:10497000136063685B1B102B10D9601910F0070FD0
:1049800008D04FF03F0383F31188BFF36F8FBFF35D
:104990004F8FFEE743606560FFF78AFF6268164944
:1049A0000B689B1A0B60164909688B4201D21449A7
:1049B0000B60104B1B68134363600023236002E00D
:1049C000002600E0002600F0A9FF16F0070F0CD02B
:1049D0004FF03F0383F31188BFF36F8FBFF34F8F07
:1049E000FEE70026EFE70026EDE7304670BD00BF8A
:1049F000384F00083C0F0108400F0108480F01081C
:104A0000440F010880B338B50446A0F1080550F8FA
:104A1000043C164A1268134208D14FF03F0383F357
:104A20001188BFF36F8FBFF34F8FFEE750F8081C5C
:104A300041B14FF03F0383F31188BFF36F8FBFF392
:104A40004F8FFEE723EA020340F8043C00F0B8FE73
:104A500054F8041C064A13680B4413602846FFF7F9
:104A600027FF00F05BFF38BD704700BF3C0F010817
:104A7000400F010882B0002301930D4B1B68B3F176
:104A8000FF3F08D04FF03F0383F31188BFF36F8FD0
:104A9000BFF34F8FFEE74FF03F0383F31188BFF35F
:104AA0006F8FBFF34F8F019B002BFCD002B070477C
:104AB0009C25000808480068006880F308884FF0CB
:104AC000000080F3148862B661B6BFF34F8FBFF366
:104AD0006F8F00DF00BF000008ED00E0DFF80C0082
:104AE000016841F4700101607047000088ED00E04A
:104AF0004FF0807340F8043C21F0010140F8081C9D
:104B0000054B40F80C3C40F8202C6FF0020340F8B5
:104B1000243C4438704700BF754A00100000000074
:104B2000074B19680868B0E8F04F80F30988BFF3B5
:104B30006F8F4FF0000080F311887047AFF3008053
:104B4000A80F01084FF03F0383F31188BFF36F8F65
:104B5000BFF34F8F0B4A136801331360012B00D052
:104B600070474FF0E023D3F8043D13F0FF0FF7D068
:104B70004FF03F0383F31188BFF36F8FBFF34F8F65
:104B8000FEE700BF9C250008094B1B6843B94FF0A6
:104B90003F0383F31188BFF36F8FBFF34F8FFEE79F
:104BA000013B034A13600BB983F31188704700BFC0
:104BB0009C2500080000000000000000000000002C
:104BC000EFF30980BFF36F8F154B1A681EF0100FBB
:104BD00008BF20ED108A20E9F04F10602DE9090090
:104BE0004FF03F0080F31188BFF34F8FBFF36F8FFB
:104BF00000F036FF4FF0000080F3118809BC1968FF
:104C00000868B0E8F04F1EF0100F08BFB0EC108A33
:104C100080F30988BFF36F8F704700BFAFF3008048
:104C2000A80F010808B54FF03F0383F31188BFF3C5
:104C30006F8FBFF34F8F00F0E5FD28B14FF0E023F9
:104C40004FF08052C3F8042D002383F3118808BD70
:104C50004FF0E022002313619361054B1B68054967
:104C6000A1FB03139B09013B5361072313617047A9
:104C700048250008D34D621030B583B02E4B1A780A
:104C8000D2B20192FF221A701B78DBB28DF803308A
:104C90009DF8033003F03F03284A1370284B072286
:104CA0001A6009E0264A1368013B13609DF803303F
:104CB0005B00DBB28DF803309DF8033013F0800FFA
:104CC000F0D11F4B1B68042B08D04FF03F0383F338
:104CD0001188BFF36F8FBFF34F8FFEE71B02184A97
:104CE000136003F4E0631360019BDBB2124A13709C
:104CF0004FF0E024D4F8203D43F47F03C4F8203D76
:104D0000D4F8203D43F07F43C4F8203DFFF7A0FFD7
:104D100000250C4B1D60FFF7E1FED4F8343F43F053
:104D20004043C4F8343FFFF7C5FE00F099FEFFF79B
:104D3000A1FE284603B030BD00E400E0500F01089A
:104D4000540F01089C250008EFF305830F2B0FD9A2
:104D5000114A9B5CDBB2114A12789A4208D94FF093
:104D60003F0383F31188BFF36F8FBFF34F8FFEE7CD
:104D70004FF0E023D3F80C3D03F4E063084A1268D7
:104D8000934208D94FF03F0383F31188BFF36F8F2D
:104D9000BFF34F8FFEE77047F0E300E0500F0108CC
:104DA000540F010810B50446FFF7CCFEA26BE36B6D
:104DB0009A4204D00024FFF7E7FE204610BD0124EC
:104DC000F9E710B50446FFF7BDFEA36B23B9012434
:104DD000FFF7DAFE204610BD0024F9E770B504465F
:104DE0001646856B026CEAB166B9806808F0A6FFCA
:104DF000226CA3681344A3606268934212D32368B1
:104E0000A3600FE0C06808F099FF226C5142E3688C
:104E10009B1AE3602268934202D263680B44E3600A
:104E2000022E03D00135A563002070BD002DF9D0FE
:104E3000013DF7E70346026C6AB110B50846D96830
:104E40001144D9605C68A14201D31968D960D9685E
:104E500008F074FF10BD704738B50546FFF772FEC5
:104E600095F8454064B201E0013C64B2002C0ADDD3
:104E70006B6A43B105F1240000F0EEFE0028F3D088
:104E800000F07EFFF0E7FF2385F84530FFF77CFE5A
:104E9000FFF758FE95F8444064B201E0013C64B26B
:104EA000002C0ADD2B6943B105F1100000F0D4FE9F
:104EB0000028F3D000F064FFF0E7FF2385F84430CA
:104EC000FFF762FE38BD38B5E0B10D460446FFF786
:104ED00039FE2368E26B216C01FB02306060002028
:104EE000A063A360013A02FB0133E360FF2384F86F
:104EF000443084F84530FDB9236963B9FFF744FEB7
:104F0000012038BD4FF03F0383F31188BFF36F8F4B
:104F1000BFF34F8FFEE704F1100000F09DFE002864
:104F2000ECD04FF0E0234FF08052C3F8042DBFF3D4
:104F30004F8FBFF36F8FE1E704F11000FFF740FCE4
:104F400004F12400FFF73CFCD8E710B503460298B3
:104F50000C4631B90060C36304640121FFF7B3FF5D
:104F600010BD0260F7E740B94FF03F0383F31188AB
:104F7000BFF36F8FBFF34F8FFEE7F0B583B00C46E2
:104F80001546064689B101FB00F04830FFF7C2FC28
:104F9000074638B100902B4600F1480221463046C2
:104FA000FFF7D3FF384603B0F0BD0846EDE7F0B594
:104FB00085B0019288B10F461D460446B1B1022D5D
:104FC00020D1E36B012B1DD04FF03F0383F31188F9
:104FD000BFF36F8FBFF34F8FFEE74FF03F0383F3B5
:104FE0001188BFF36F8FBFF34F8FFEE7036C002B69
:104FF000E5D04FF03F0383F31188BFF36F8FBFF30A
:105000004F8FFEE700F0C8FE064658B9019B002B03
:1050100048D04FF03F0383F31188BFF36F8FBFF386
:105020004F8FFEE700263DE02A4639462046FFF72F
:10503000D5FE636A7BB948B14FF0E0234FF0805250
:10504000C3F8042DBFF34F8FBFF36F8FFFF79CFDA5
:10505000012005B0F0BD04F1240000F0FDFD0028A2
:10506000F4D04FF0E0234FF08052C3F8042DBFF38B
:105070004F8FBFF36F8FE9E7FFF786FD0020E8E76A
:1050800002A800F02FFE012619E0002384F8443026
:1050900021E0002384F8453023E02046FFF7DCFEC2
:1050A00000F03CFCFFF74EFDA26BE36B9A42BBD3D2
:1050B000022DB9D0019B002BDED0002EE0D0FFF7EF
:1050C00063FD00F07DFBFFF73DFD94F8442052B2F4
:1050D000B2F1FF3FD9D094F8452052B2B2F1FF3F70
:1050E000D7D0FFF751FD01A902A800F007FED8B9FB
:1050F0002046FFF757FE0028CFD0019904F1100099
:1051000000F076FD2046FFF7A7FE00F007FC002820
:10511000C8D14FF0E0234FF08052C3F8042DBFF305
:105120004F8FBFF36F8FBDE72046FFF795FE00F06E
:10513000F5FB00208DE72DE9F84390B10F461646A8
:105140001C460546B1B1022C20D1EB6B012B1DD0C2
:105150004FF03F0383F31188BFF36F8FBFF34F8F7F
:10516000FEE74FF03F0383F31188BFF36F8FBFF368
:105170004F8FFEE7036C002BE5D04FF03F0383F326
:105180001188BFF36F8FBFF34F8FFEE7FFF7DCFD92
:10519000EFF311894FF03F0383F31188BFF36F8F53
:1051A000BFF34F8FAA6BEB6B9A4206D3022C04D04D
:1051B000002089F31188BDE8F88395F845804FFAFF
:1051C00088F8224639462846FFF708FEB8F1FF3F27
:1051D00006D008F101035BB285F845300120E8E70D
:1051E0006B6A0BB90120E4E705F1240000F034FDFF
:1051F00018B126B101203060DBE70120D9E701209A
:10520000D7E7F0B585B0019290B10F460446C1B121
:1052100000F0C2FD064600BB019B002B5ED04FF0A4
:105220003F0383F31188BFF36F8FBFF34F8FFEE708
:105230004FF03F0383F31188BFF36F8FBFF34F8F9E
:10524000FEE7036C002BE3D04FF03F0383F311889C
:10525000BFF36F8FBFF34F8FFEE700263EE0394666
:105260002046FFF7E7FD013DA563236923B9FFF75A
:105270008BFC012005B0F0BD04F1100000F0ECFC47
:105280000028F4D04FF0E0234FF08052C3F8042DF3
:10529000BFF34F8FBFF36F8FE9E7FFF775FC002077
:1052A000E8E702A800F01EFD012621E0002384F8B3
:1052B000443029E0002384F845302BE02046FFF7F6
:1052C000CBFD00F02BFB09E02046FFF7C5FD00F009
:1052D00025FB2046FFF775FD00283FD1FFF732FC84
:1052E000A56B002DBBD1019B002BD6D0002ED8D0B2
:1052F000FFF74AFC00F064FAFFF724FC94F844300E
:105300005BB2B3F1FF3FD1D094F845305BB2B3F15B
:10531000FF3FCFD0FFF738FC01A902A800F0EEFC58
:105320000028D1D12046FFF74CFD0028C6D00199B6
:1053300004F1240000F05CFC2046FFF78DFD00F036
:10534000EDFA0028CAD14FF0E0234FF08052C3F8A5
:10535000042DBFF34F8FBFF36F8FBFE7002089E7A6
:105360000023092B0CD8074A52F833200AB1013325
:10537000F7E7044A42F8331002EBC3035860704762
:10538000704700BF580F010870B504460D46164619
:10539000FFF7D8FB94F844305BB2B3F1FF3F0DD078
:1053A00094F845305BB2B3F1FF3F0BD0FFF7ECFB55
:1053B000A36B5BB12046FFF74FFD70BD002384F85F
:1053C0004430EDE7002384F84530EFE732462946C4
:1053D00004F1240000F024FCECE70000084B1B68FB
:1053E0001B6823B9074B4FF0FF321A607047044B1C
:1053F0001B68DB68DB685A68024B1A60704700BFA5
:10540000AC0F01088410010810B50446006BFFF7CB
:10541000F9FA2046FFF7F6FA10BD2DE9F0470746E6
:105420000D4616469846DDF820A0DDF824900A9C2B
:105430009200A521206B08F08FFC236B06F18042BF
:10544000013A03EB820626F007064FF0000CBCF190
:105450000F0F0BD815F80C2004EB0C0383F8342045
:1054600015F80C3013B10CF1010CF0E7002384F8AF
:105470004330BAF1060F01D94FF0060AC4F82CA048
:10548000201DFFF7A8F904F11800FFF7A4F9246123
:10549000CAF10703A36164624FF0000C07E00CF14E
:1054A000100304EB830300225A600CF1010CBCF1E1
:1054B000040FF4D90023A36584F85C3042463946D2
:1054C0003046FFF715FB2060B9F1000F01D0C9F895
:1054D0000040BDE8F087000038B5002407E004EB89
:1054E000840293000E481844FFF76AF90134062C31
:1054F000F5D90C4D2846FFF763F90B4C2046FFF712
:105500005FF90A48FFF75CF90948FFF759F90948BC
:10551000FFF756F9084B1D60084B1C6038BD00BFF3
:10552000B40F0108581001086C1001088C10010814
:10553000B8100108A4100108AC0F0108B00F010851
:1055400010B50446FFF7FEFA214A136801331360D1
:10555000204B1B685BB1204B1B686BB91D4B1B6854
:10556000DA6AE36A9A4207D81A4B1C6004E0194BC6
:105570001C601368012B28D0184A1368013313608C
:10558000E36A174A1268934201D9154A136003EB84
:105590008303211D134800EB8300FFF71FF9FFF77A
:1055A000F3FA0D4B1B687BB10A4B1B68DA6AE36A9E
:1055B0009A4209D24FF0E0234FF08052C3F8042DF5
:1055C000BFF34F8FBFF36F8F10BDFFF785FFD3E79A
:1055D00040100108A80F0108A01001085010010890
:1055E00054100108B40F01080F4B1B68D3B110B55C
:1055F000FFF7A8FA0D4BDB68DC68201DFFF712F9F6
:105600000B4A1368013B1360074A1368013B1360A0
:10561000FFF7BAFA2046FFF7F7FE034B1B68002B93
:10562000E6D110BD704700BF44100108B810010852
:105630004010010808B5FFF7D7FF074B1B68012B87
:10564000F9D94FF0E0234FF08052C3F8042DBFF397
:105650004F8FBFF36F8FEEE7B40F010870B50446AC
:105660000D46174B1E68174B18680430FFF7DAF821
:10567000B4F1FF3F0DD03444124B1B685C60A6426E
:1056800010D9114B18680F4B19680431FFF7B1F8A6
:1056900070BD002DEFD00B4B196804310B48FFF79C
:1056A0009DF8F5E70A4B1868064B19680431FFF7B7
:1056B000A0F8084B1B68A342EAD9064B1C60E7E739
:1056C000CC100108A80F0108B00F0108A4100108B0
:1056D000AC0F0108841001082DE9F04385B007469E
:1056E000884614461E469000FFF714F9F0B1814633
:1056F0006020FFF70FF90546A0B1C0F83090D5B192
:105700000023039302950D9B01930C9B009333465A
:10571000224641463846FFF780FE2846FFF710FF35
:10572000012005E04846FFF76DF9E8E74FF0FF304C
:1057300005B0BDE8F0834FF0FF30F9E700B583B066
:10574000194B019300230093802218491848FFF752
:10575000C3FF012807D0012808D0B0F1FF3F1AD0BD
:1057600003B05DF804FB00F0A9FBF4E74FF03F0342
:1057700083F31188BFF36F8FBFF34F8F0D4B4FF043
:10578000FF321A600C4B01221A600C4B00221A6087
:10579000FFF772FAE4E74FF03F0383F31188BFF39A
:1057A0006F8FBFF34F8FFEE7801001089018011034
:1057B0003556001084100108A0100108CC10010813
:1057C000024A136801331360704700BF4C10010890
:1057D000014B1868704700BFCC100108034618B190
:1057E0002BB103F134007047054B1B68F8E74FF00D
:1057F0003F0383F31188BFF36F8FBFF34F8FFEE733
:10580000A80F0108F8B53A4B1B68002B64D1394B3F
:105810001D6801351D60C5B9374B1B681B6843B156
:105820004FF03F0383F31188BFF36F8FBFF34F8FA8
:10583000FEE7314A1168314B186810601960304A30
:10584000136801331360FFF7C9FD2E4B1B68AB4291
:1058500038D900272C4B1B68DB6A03EB83039A00C3
:105860002A4B9B58012B3CD901273AE00127224BB8
:105870001B681B6843B3204B1B68DB68DC686368EC
:105880009D4226D3261D3046FEF7CCFFA36A1BB1EE
:1058900004F11800FEF7C6FFE36A1D4A126893423E
:1058A00001D91B4A136003EB83039A003146174862
:1058B0001044FEF793FFE26A134B1B68DB6A9A42BF
:1058C000D4D2D4E70027D2E70E4B4FF0FF321A6054
:1058D000C0E70C4A1360BDE70E4A1368013313603A
:1058E00000270D4B1B6803B101273846F8BD00BFE8
:1058F0004C100108CC100108AC0F0108B00F0108D2
:105900008810010884100108A80F0108B40F0108CD
:105910005410010848100108D010010838B5354B63
:105920001B6843B94FF03F0383F31188BFF36F8FB8
:10593000BFF34F8FFEE7FFF705F92E4B1A68013AC8
:105940001A601B68002B4FD12B4B1B680BB900242E
:105950004BE00024294B1B681BB3284BDB68DC6839
:1059600004F11800FEF75EFF251D2846FEF75AFFDA
:10597000E06A234B1B68984201D9214B186000EB69
:10598000800029461F4B03EB8000FEF727FFE26AE9
:105990001D4B1B68DB6A9A42DCD31C4B01221A6048
:1059A000D8E70CB1FFF71AFD194B1C6884B9174BE7
:1059B0001C68D4B14FF0E0234FF08052C3F8042D9F
:1059C000BFF34F8FBFF36F8F01240EE0013C07D070
:1059D000FFF718FF0028F9D00C4B01221A60F5E7F9
:1059E0000B4B00221A60E2E70024FFF7CDF82046B7
:1059F00038BD00BF4C100108401001088C10010890
:105A000054100108B40F0108A80F0108D0100108B4
:105A10004810010810B5A8B10446104B1B6843B1EB
:105A20004FF03F0383F31188BFF36F8FBFF34F8FA6
:105A3000FEE7FFF7C5FE00212046FFF70FFEFFF748
:105A40006DFF48B94FF0E0234FF08052C3F8042DAA
:105A5000BFF34F8FBFF36F8F10BD00BF4C10010815
:105A600008B52D4B1B681BB12C4B01221A6008BDD9
:105A70002A4B00221A602A4B1B681B6B1A68B2F172
:105A8000A53F03D15A68B2F1A53F10D0244B186846
:105A90001968343107F01EF9224B1B6803EB8301B0
:105AA0008A0021498A58A2B953B1013BF6E79A68A6
:105AB000B2F1A53FEAD1DB68B3F1A53FE6D1EBE750
:105AC0004FF03F0383F31188BFF36F8FBFF34F8F06
:105AD000FEE703EB830082000A4450684068506090
:105AE00003EB830C4FEA8C020832114488420BD03E
:105AF00003EB830291000C4A0A445268D168084AB9
:105B00001160084A1360B2E7406862469100064A95
:105B10000A445060ECE700BF4C100108D0100108A7
:105B2000A80F010854100108B40F010838B5044645
:105B3000FFF708F8E4B1251D2846FEF773FEA36AB7
:105B40001BB104F11800FEF76DFE29462348FEF74D
:105B500045FE94F85C30DBB2012B0CD0FFF714F853
:105B60001F4B1B685BB91F4B1B68A3420ED038BD8F
:105B70001C4B1C68DFE7002384F85C30EEE7FEF77F
:105B8000E1FFFFF72BFCFEF7FFFFECE7144B1B6870
:105B9000B3B1154B1B6843B14FF03F0383F311883A
:105BA000BFF36F8FBFF34F8FFEE74FF0E0234FF04F
:105BB0008052C3F8042DBFF34F8FBFF36F8FD6E72A
:105BC000064B1A68094B1B689A4203D1054B002209
:105BD0001A60CCE7FFF744FFC9E700BFA410010833
:105BE000A0100108A80F01084C100108401001087E
:105BF00058B110B50C46094A11681831FEF7F9FD85
:105C000001212046FFF72AFD10BD4FF03F0383F32B
:105C10001188BFF36F8FBFF34F8FFEE7A80F010806
:105C200038B570B10D4614460A4A11681831FEF7AE
:105C3000D5FD0CB14FF0FF3521462846FFF70EFD8C
:105C400038BD4FF03F0383F31188BFF36F8FBFF36D
:105C50004F8FFEE7A80F010838B5C368DC6824B38E
:105C600004F118052846FEF7DDFD184B1B682BBB19
:105C7000251D2846FEF7D6FDE06A154B1B689842A5
:105C800001D9134B186000EB80002946114B03EB40
:105C90008000FEF7A3FDE26A0F4B1B68DB6A9A42A5
:105CA00011D901200D4B186038BD4FF03F0383F32D
:105CB0001188BFF36F8FBFF34F8FFEE72946084867
:105CC000FEF78CFDE7E70020EEE700BF4C1001086F
:105CD00054100108B40F0108A80F0108D0100108E2
:105CE0008C100108034B1B680360034B1B68436067
:105CF000704700BF88100108CC100108F8B5C8B182
:105D00000C460546F9B1FEF71DFF1B4B19686B6881
:105D1000C81A2268B2F1FF3F26D0184E36682F68A5
:105D2000B74201D08B4224D9824215D80023236088
:105D300001241AE04FF03F0383F31188BFF36F8F04
:105D4000BFF34F8FFEE74FF03F0383F31188BFF39C
:105D50006F8FBFF34F8FFEE75B1A13442360284613
:105D6000FFF7C0FF002400E00024FEF70DFF2046EF
:105D7000F8BD0124F9E700BFCC1001088810010824
:105D8000014B01221A607047D0100108014B1868BE
:105D9000704700BFA80F0108054B1B6833B1054BC6
:105DA0001B680BB10020704702207047012070472C
:105DB000A01001084C100108064B1A681368B3FACA
:105DC00083F35B09036013B9D36818687047002038
:105DD000704700BFD410010808B5416000619142CE
:105DE0000CD8D21A83699A4201D3012008BD011D43
:105DF000094B1868FEF7FDFC0020F7E79A4201D234
:105E0000994206D2011D054B1868FEF7F2FC0020EE
:105E1000ECE70120EAE700BFD8100108D410010820
:105E200038B5FEF78FFE0F4B1B6813B1FEF7ACFEC3
:105E300038BD0D4D2846FEF7C3FC0C4C2046FEF73E
:105E4000BFFC0B4B1D600B4B1C6000220C210A2079
:105E5000FFF789F8034B18600028E7D00649FFF7E1
:105E60007FFAE3E708110108DC100108F0100108CF
:105E7000D4100108D8100108981801102DE9F0413C
:105E8000079F41B94FF03F0383F31188BFF36F8F32
:105E9000BFF34F8FFEE7064615461C4688465FB1A6
:105EA000FFF7BEFF3E60C7F81880FD613C62069BAD
:105EB0007B62381DFEF78FFCBDE8F08100B583B032
:105EC000FFF7AEFF0C4B1B6853B10C4B0193032340
:105ED0000093002380220A490A48FFF7FDFB40B9DE
:105EE0004FF03F0383F31188BFF36F8FBFF34F8FE2
:105EF000FEE703B05DF804FB081101080C1101086E
:105F0000A0180110FD6100102DE9F04182B0044697
:105F1000884615461E462820FEF7FCFC074640B181
:105F20000190089B009333462A4641462046FFF7DE
:105F3000A5FF384602B0BDE8F0810000B8B19C462C
:105F400003461848006858B300B585B00191029225
:105F5000039305291CDCFFF71FFF022810D0002344
:105F60001A4601A90F480068FFF721F815E04FF025
:105F70003F0383F31188BFF36F8FBFF34F8FFEE7AB
:105F80000023069A01A907480068FFF710F804E00B
:105F90000023624601A9FFF7CEF805B05DF804FBC7
:105FA000002070470811010870B582B01A4B1B68B9
:105FB0001A6852B3DB681E68DC68251D2846FEF7A8
:105FC00031FC636A20469847E369012BEED1A3694F
:105FD00033449E4207D26360246129460E4B186801
:105FE000FEF707FCE2E7002100910B46324620460F
:105FF000FFF7A4FF0028D9D14FF03F0383F31188A6
:10600000BFF36F8FBFF34F8FFEE7044A106802495A
:106010000860136002B070BDD4100108D8100108E8
:1060200038B50546FFF7D4FB0446074B1B6883428F
:1060300005D800232B60044B1C60204638BDFFF7B9
:10604000B3FF01232B60F6E70411010870B582B09D
:1060500006460D4614490968C968CC68201DFEF73C
:10606000E1FBE169012904D0636A2046984702B048
:1060700070BDA16933462A4631442046FFF7ACFE85
:106080000028F1D0002100910B4632462046FFF750
:1060900055FF0028E8D14FF03F0383F31188BFF389
:1060A0006F8FBFF34F8FFEE7D410010870B582B039
:1060B00006460C46FFF784FB01A8FFF7B1FF019BE2
:1060C0002BBB05460CB9B0421AD22CB1124B1B683F
:1060D0001C68B4FA84F464092246711B0F4B1868DB
:1060E000FFF752F9FFF71AFC98B94FF0E0234FF091
:1060F0008052C3F8042DBFF34F8FBFF36F8F08E0BA
:10610000FFF70CFC29463046FFF7A0FF01E0FFF740
:1061100005FC02B070BD00BFD810010808110108CD
:1061200010B586B0002203A9334B1868FFF769F851
:1061300000285FD0039B002BF4DB059C636913B13F
:10614000201DFEF76FFB02A8FFF76AFF039B092BD8
:10615000E8D801A252F823F081610010816100109B
:106160008161001025610010C7610010ED61001011
:10617000816100108161001025610010C76100106D
:10618000049BA169024619442046FFF725FE00281A
:10619000C8D0636A20469847E369012BC2D1A2693F
:1061A000002100910B46049802442046FFF7C6FEEA
:1061B0000028B7D14FF03F0383F31188BFF36F8FEF
:1061C000BFF34F8FFEE70499A16131B10346024648
:1061D00001442046FFF700FEA4E74FF03F0383F39E
:1061E0001188BFF36F8FBFF34F8FFEE72046FEF796
:1061F00009FC97E706B010BD0811010800B583B08F
:1062000001A8FFF7D9FD0199FFF750FFFFF788FFBD
:10621000F6E74B7803708B7843704B7883708B78FC
:10622000C370027170470000084BD3F8003503F0CB
:106230000303012B04D9032B05D001BE00207047B6
:106240004FF4004070474FF4004070470000264074
:10625000122817D8DFE800F00A180C0E16161616CA
:106260001616161616101612161614000820704769
:1062700004207047012070470520704701207047B7
:1062800005207047012070471020704738B505463B
:1062900014468A4294BF00230123834209D080F030
:1062A00001038A422CBF002101218B4201D05DB144
:1062B00038BD05F003FB0649A1FB0431890CC0F38E
:1062C000C02005F069F9F2E7FCF752FAF0E700BFE9
:1062D00083DE1B432DE9F04182B00D46074628B10D
:1062E0002846FFF7B5FFC6B2002403E001BEF7E77A
:1062F0000134E4B2B44213D204238DF804308DF893
:1063000005508DF806400DEB030000F0FFFF8046BE
:106310000028EDD1012201A93846FFF77AFF01E0FC
:10632000DFF80880404602B0BDE8F08102010204B7
:1063300008B50346C8B11A789978914217D000225F
:1063400002B901BE9A78192A00F2AE80DFE802F0A5
:1063500064646464AF171C22AC282D33ACAF383DA5
:10636000AFAC4C59AF5FAFAFAFAF01BEE3E7597809
:10637000DA78914201D00022E2E70122E0E74E4BB9
:10638000D3F82C05C00F93E004F0E0F9003818BFF3
:1063900001208DE0494B1868003818BF012087E0C4
:1063A000454BD3F80C05C00F82E0434BD3F83C05B6
:1063B000C0F340707CE0424B1868C0F3C00077E047
:1063C0003D4BD3F88005C00F72E0DB783D4A126880
:1063D00092F83B20934200D301BE03F5C073364AC6
:1063E00052F82300C00F63E0DB78364A126892F857
:1063F0003C2093425DD2E0332F4A52F82300C00F75
:1064000056E02D4BD3F80005C0F3C03050E02A4BC6
:10641000D3F80405C00F4BE0DB780AB9072B06D987
:10642000012A0AD0022A0BD0032A0CD001BE032A6B
:1064300038D8DFE802F00B16212C0F2BF7D9F1E743
:10644000032BF4D9F0E7002BF1D0EFE71D4A1168D8
:106450008A68B1F870100A4452F8230000F0010075
:1064600026E0184A11688A68B1F872100A4452F896
:10647000230000F001001BE0124A11688A68B1F89D
:1064800074100A4452F8230000F0010010E00D4A95
